:100000000C948F000C94B7000C94B7000C94B700BC
:100010000C94B7000C94B7000C94B7000C94B70084
:100020000C94B7000C94B7000C94B7000C94B70074
:100030000C94B7000C94B7000C94B7000C94B70064
:100040000C9409040C94B7000C94D7030C94B103DE
:100050000C94B7000C94B7000C94B7000C94B70044
:100060000C94B7000C94B70008000000BE9224491D
:10007000123EABAAAA2ABECDCCCC4C3E00000080DA
:10008000BEABAAAAAA3E00000000BF000000803F4D
:100090000000000000084178D3BB4387D1133D190D
:1000A0000E3CC3BD4282AD2B3E68EC8276BED98F3A
:1000B000E1A93E4C80EFFFBE01C4FF7F3F0000007E
:1000C00000000000000023002600290000000000BE
:1000D000240027002A0000000000250028002B0033
:1000E00004040404040404040202020202020303DE
:1000F00003030303010204081020408001020408E6
:100100001020010204081020000000080002010075
:100110000003040700000000000000005304112445
:100120001FBECFEFD8E0DEBFCDBF22E0AAE6B1E030
:1001300001C01D92AB36B207E1F711E0A0E0B1E0DB
:10014000E8E0F5E102C005900D92AA36B107D9F7B3
:1001500010E0CFE8D0E004C02197FE010E947C0AA5
:10016000CE38D107C9F70E9492040C94820A0C94ED
:100170000000E8E8F1E0A089B18982E08C93A485D1
:10018000B5851C92A685B7858FEC8C93108EA489BB
:10019000B58986E08C93A289B3898C9180618C9318
:1001A000A289B3898C9188608C93A289B3898C9140
:1001B00080688C930288F389E02D80818F7D808315
:1001C0000895AF92BF92CF92DF92EF92FF920F937A
:1001D0001F93CF93DF936C017B018B01040F151FDD
:1001E000EB015E01AE18BF08C017D10759F0699145
:1001F000D601ED91FC910190F081E02DC6010995A9
:10020000892B79F7C501DF91CF911F910F91FF9055
:10021000EF90DF90CF90BF90AF900895FC01538D89
:10022000448D252F30E0842F90E0821B930B5417D0
:1002300010F0CF96089501970895FC01918D828D5D
:10024000981761F0A28DAE0FBF2FB11D5D968C91F6
:10025000928D9F5F9F73928F90E008958FEF9FEF35
:100260000895FC01918D828D981731F0828DE80FF1
:10027000F11D858D90E008958FEF9FEF0895FC01AB
:10028000918D228D892F90E0805C9F4F821B910978
:100290008F739927089588E891E00E943F0121E03B
:1002A000892B09F420E0822F089580E090E0892BCB
:1002B00029F00E944B0181110C9400000895FC016B
:1002C000A48DA80FB92FB11DA35ABF4F2C91848DB7
:1002D00090E001968F739927848FA689B7892C9314
:1002E000A089B1898C91837080648C93938D848D67
:1002F000981306C00288F389E02D80818F7D80836A
:100300000895EF92FF920F931F93CF93DF93EC0129
:1003100081E0888F9B8D8C8D98131AC0E889F989AC
:10032000808185FF15C09FB7F894EE89FF896083AF
:10033000E889F98980818370806480839FBF81E030
:1003400090E0DF91CF911F910F91FF90EF90089572
:10035000F62E0B8D10E00F5F1F4F0F731127E02E4D
:100360008C8D8E110CC00FB607FCFACFE889F98985
:10037000808185FFF5CFCE010E945F01F1CFEB8D2B
:10038000EC0FFD2FF11DE35AFF4FF0829FB7F89459
:100390000B8FEA89FB8980818062CFCFCF93DF9377
:1003A000EC01888D8823B9F0AA89BB89E889F9898D
:1003B0008C9185FD03C0808186FD0DC00FB607FCC2
:1003C000F7CF8C9185FFF2CF808185FFEDCFCE01F5
:1003D0000E945F01E9CFDF91CF910895833081F0D2
:1003E00028F4813099F08230A9F008958730A9F07F
:1003F0008830C9F08430B1F4809180008F7D03C0D3
:10040000809180008F7780938000089584B58F77E6
:1004100084BD089584B58F7DFBCF8091B0008F7728
:100420008093B00008958091B0008F7DF9CF1F9325
:10043000CF93DF93282F30E0F901E85FFE4F8491DE
:10044000F901EC50FF4FD491F901E052FF4FC491F4
:10045000CC23A9F0162F81110E94EE01EC2FF0E0C1
:10046000EE0FFF1FEA52FF4FA591B4918FB7F8949A
:10047000EC91111108C0D095DE23DC938FBFDF9182
:10048000CF911F910895DE2BF8CFCF93DF9390E0AB
:10049000FC01EC50FF4F249180529F4FFC0184914E
:1004A0008823D1F090E0880F991FFC01E453FF4F9F
:1004B000A591B491FC01EA52FF4FC591D49161110D
:1004C0000EC09FB7F8948C91E22FE0958E238C9309
:1004D0002881E223E8839FBFDF91CF9108958FB7F2
:1004E000F894EC91E22BEC938FBFF6CF3FB7F894E2
:1004F0008091770190917801A0917901B0917A0172
:1005000026B5A89B05C02F3F19F00196A11DB11D6E
:100510003FBFBA2FA92F982F8827BC01CD01620FAA
:10052000711D811D911D42E0660F771F881F991F65
:100530004A95D1F708952FB7F8946091730170919F
:10054000740180917501909176012FBF08950F93EA
:100550001F93CF93DF939C01FC01E85FFE4F8491D2
:10056000F901EC50FF4FD491F901E052FF4FC491D3
:10057000CC2309F451C081110E94EE01EC2FF0E070
:10058000EE0FFF1FEE53FF4FA591B491EC91ED23B9
:1005900091E080E009F490E0C92FD82F809170019C
:1005A000909171018C179D0751F00E949B026093FE
:1005B0006C0170936D0180936E0190936F010E94A6
:1005C0009B0200916C0110916D0120916E013091A0
:1005D0006F01601B710B820B930B633371058105F7
:1005E0009105E8F080916A0190916B018C179D074D
:1005F000B1F0D0936B01C0936A0181E090E0C1300B
:10060000D10509F080E0D0937101C0937001DF91B2
:10061000CF911F910F910895D0E0C0E0BFCF80E04F
:1006200090E0F1CFFC0101900020E9F73197AF0194
:10063000481B590BBC0188E891E00C94E1008F92B3
:100640009F92AF92BF920F931F93CF93DF93CDB73B
:10065000DEB7A1970FB6F894DEBF0FBECDBF19A2CB
:10066000423008F44AE08E010F5D1F4F842E912C1A
:10067000B12CA12CA50194010E949808E62FB90184
:10068000CA01EA30F4F4E05DD801EE938D01232B2A
:10069000242B252B79F790E080E0109719F0CD01FD
:1006A0000E941203A1960FB6F894DEBF0FBECDBF15
:1006B000DF91CF911F910F91BF90AF909F908F903E
:1006C0000895E95CE1CFEF92FF920F931F93CF93D0
:1006D000DF9300D000D0CDB7DEB788E891E00E946C
:1006E0001D0188E891E00E941D018E010F5F1F4FE0
:1006F00078018A3341F0F80181938F0188E891E015
:100700000E941D01F6CFC7010E947707182F88E8C5
:1007100091E00E941D018053990B8230910520F4D5
:10072000682F812F0E94170288E891E00E941D0126
:100730008A3011F08D30C1F788E891E00E943101D4
:100740008A3021F488E891E00E941D010F900F90FB
:100750000F900F90DF91CF911F910F91FF90EF902D
:1007600008951F920F920FB60F9211242F933F936B
:100770004F935F936F937F938F939F93AF93BF93A9
:10078000EF93FF9388E891E00E945F01FF91EF9162
:10079000BF91AF919F918F917F916F915F914F9199
:1007A0003F912F910F900FBE0F901F9018951F92A1
:1007B0000F920FB60F9211242F938F939F93EF9365
:1007C000FF93E0919801F09199018081E0919E0161
:1007D000F0919F0182FD1BC090818091A1018F5FEC
:1007E0008F732091A201821741F0E091A101F0E006
:1007F000E857FE4F958F8093A101FF91EF919F9154
:100800008F912F910F900FBE0F901F9018958081A0
:10081000F4CF1F920F920FB60F9211242F933F9394
:100820008F939F93AF93BF938091730190917401C5
:10083000A0917501B09176013091720123E0230FF0
:100840002D3758F50196A11DB11D2093720180939B
:10085000730190937401A0937501B0937601809118
:10086000770190917801A0917901B0917A01019678
:10087000A11DB11D8093770190937801A093790118
:10088000B0937A01BF91AF919F918F913F912F913A
:100890000F900FBE0F901F90189526E8230F029619
:1008A000A11DB11DD2CFE8E8F1E01382128288EEDB
:1008B00093E0A0E0B0E084839583A683B7838CE2C5
:1008C00091E09183808385EC90E09587848784EC28
:1008D00090E09787868780EC90E0918B808B81EC0D
:1008E00090E0938B828B82EC90E0958B848B86ECEE
:1008F00090E0978B868B118E128E138E148EE5E20C
:10090000F2E01682178210861186128613861486EC
:10091000158616861786108A118A128A138A148AF7
:10092000158A0895789484B5826084BD84B5816009
:1009300084BD85B5826085BD85B5816085BD8091AA
:100940006E00816080936E00109281008091810022
:10095000826080938100809181008160809381001A
:10096000809180008160809380008091B1008460DC
:100970008093B1008091B00081608093B00080913D
:100980007A00846080937A0080917A0082608093FC
:100990007A0080917A00816080937A0080917A0059
:1009A000806880937A001092C100109267021092C2
:1009B00068021092690210926A0210922702109245
:1009C00028021092290210922A020E949B026B01B7
:1009D0007C014B015C0128EB820E2BE0921EA11CD6
:1009E000B11C0E949B026C157D058E059F0528F0A9
:1009F00086169706A806B906A0F70E9476024B0154
:100A00005C0158EEC52E53E0D52EE12CF12C0E944E
:100A10007602681979098A099B09683E7340810545
:100A20009105A8F331E0C31AD108E108F10848EEB6
:100A3000840E43E0941EA11CB11CC114D104E10436
:100A4000F10429F70E94B9000E949B0260932702DB
:100A5000709328028093290290932A028AE391E0FE
:100A60000E9412030E949B026B017C014B015C01FE
:100A70008AE0880E911CA11CB11C0E949B026C157F
:100A80007D058E059F0528F086169706A806B906EF
:100A9000A0F781E080933B020E949B0260932702B3
:100AA000709328028093290290932A028BE491E0AC
:100AB0000E94120360E082E00E94450261E08DE046
:100AC0000E94450260E083E00E94450261E08CE004
:100AD0000E94450261E086E00E94450261E085E0F7
:100AE0000E94450260E08DE00E94170260E08CE009
:100AF0000E9417020E94B90038E2232E31E0332E03
:100B000044EF842E99249394A12CB12C0E949B0233
:100B1000672B682B692B09F4EFC00E949B020091A0
:100B20008401109185012091860130918701601721
:100B300071078207930708F4AFC1009184011091F7
:100B4000850120918601309187016B017C01C01ADB
:100B5000D10AE20AF30A970186010A3F110521052D
:100B6000310508F4D1C060938401709385018093AE
:100B70008601909387018092330290923402A09272
:100B80003502B0923602109237021092380210925B
:100B9000390210923A0280912B0290912C02A0917E
:100BA0002D02B0912E0280932F0290933002A093D9
:100BB0003102B09332020E949B0260932B02709329
:100BC0002C0280932D0290932E0288E891E00E94DF
:100BD0003101843611F40E9463030E949B026093EA
:100BE0002702709328028093290290932A020E9480
:100BF0009B022B013C0182E591E00E9412034AE036
:100C000061E070E080E090E00E941F0389E591E0E0
:100C10000E9412034AE0C301B2010E941F038BE548
:100C200091E00E94120380912B0290912C02A091DE
:100C30002D02B0912E02A3019201281B390B4A0B01
:100C40005B0BCA01B9014AE00E941F038BE591E0EA
:100C50000E94120360912B0270912C0280912D0250
:100C600090912E0200912F021091300220913102BA
:100C700030913202601B710B820B930B4AE00E9491
:100C80001F038DE591E00E9412030E949B024AE03F
:100C90000E941F038FE591E00E94120386E691E017
:100CA0000E9412030E949B026B017C012B013C01FC
:100CB00035E0430E511C611C711C0E949B026C1597
:100CC0007D058E059F0528F04616570668067906AD
:100CD000A0F788E891E00E943101843611F40E9467
:100CE00063030E949B0260932B0270932C028093FB
:100CF0002D0290932E0208C00E949B026230710563
:100D00008105910508F009CF82E090E00E94A702DA
:100D1000892B09F4CAC060E08CE00E94170261E0F0
:100D20008DE00E94170245E050E05093830140930C
:100D3000820181E08093810180918101882309F4FF
:100D40009CC00E949B0200917D0110917E01209128
:100D50007F0130918001601B710B820B930B69380E
:100D600073418105910508F488C0F1E4F0937C009B
:100D700080917A00806480937A0080917A0086FD69
:100D8000FCCF8091780060917900762F682F072E34
:100D9000000C880B990B0E949F072EE230E940EA75
:100DA0005BE30E94DA079B01AC0160E070E08AE738
:100DB00093E40E94270920E030E048E452E40E94D6
:100DC000BA082BEC39ED4DE152E40E9427090E944C
:100DD000D709C0917B01D0917C018E01000F111FBA
:100DE000000F111F00501F4F2BE635E746E45DEB67
:100DF0000E942709F801608371838283938321967F
:100E0000CA30D1050CF067C0D0937C01C0937B0140
:100E1000C0E0D1E060E070E0CB01299139914991C7
:100E200059910E94BB082C163D06B9F720E030E02E
:100E300040E05FE30E94BB080E949909CB016AE091
:100E400070E00E94540A809182019091830186177C
:100E500097070CF045C061E086E00E94170260E051
:100E600085E00E9417020E949B0260937D017093AF
:100E70007E0180937F019093800180E0C82E80E006
:100E8000D82ECD2809F442CE0E944B01882309F4C4
:100E90003DCE0E9400003ACE60938401709385019C
:100EA000809386019093870148CE83E090E00E9472
:100EB000A702892B09F440CF60E08DE00E94170261
:100EC00061E08CE00E94170285E090E0909383013E
:100ED000809382012ECF10927C0110927B0198CFDB
:100EE00061E085E00E94170260E086E0BACFFC0175
:100EF00088279927E89421912032E9F3293010F0CE
:100F00002E30C8F32B3241F02D3239F4689404C0EE
:100F10000E949507820F911D219120532A30C0F322
:100F20001EF4909581959F4F08957AE0979F902D9C
:100F3000879F802D910D11240895E89409C097FB97
:100F40003EF490958095709561957F4F8F4F9F4FA0
:100F50009923A9F0F92F96E9BB279395F6958795E4
:100F600077956795B795F111F8CFFAF4BB0F11F4A7
:100F700060FF1BC06F5F7F4F8F4F9F4F16C088234E
:100F800011F096E911C0772321F09EE8872F762F84
:100F900005C0662371F096E8862F70E060E02AF0C5
:100FA0009A95660F771F881FDAF7880F96958795B1
:100FB00097F908950E94ED070C945E080E9450086E
:100FC00038F00E94570820F0952311F00C94470840
:100FD0000C944D0811240C9492080E946F0870F331
:100FE000959FC1F3950F50E0551F629FF001729FCE
:100FF000BB27F00DB11D639FAA27F00DB11DAA1FDD
:10100000649F6627B00DA11D661F829F2227B00D29
:10101000A11D621F739FB00DA11D621F839FA00DB4
:10102000611D221F749F3327A00D611D231F849F04
:10103000600D211D822F762F6A2F11249F5750405B
:101040009AF0F1F088234AF0EE0FFF1FBB1F661FD6
:10105000771F881F91505040A9F79E3F510580F09F
:101060000C9447080C9492085F3FE4F3983ED4F345
:10107000869577956795B795F795E7959F5FC1F743
:10108000FE2B880F911D9695879597F9089597F9EE
:101090009F6780E870E060E008959FEF80EC08951E
:1010A00000240A9416161706180609060895002447
:1010B0000A9412161306140605060895092E0394C1
:1010C000000C11F4882352F0BB0F40F4BF2B11F435
:1010D00060FF04C06F5F7F4F8F4F9F4F089557FD94
:1010E0009058440F551F59F05F3F71F04795880F96
:1010F00097FB991F61F09F3F79F08795089512162D
:1011000013061406551FF2CF4695F1DF08C01616D8
:1011100017061806991FF1CF869571056105089489
:101120000895E894BB2766277727CB0197F90895A0
:10113000A1E21A2EAA1BBB1BFD010DC0AA1FBB1FDB
:10114000EE1FFF1FA217B307E407F50720F0A21B4D
:10115000B30BE40BF50B661F771F881F991F1A94BA
:1011600069F760957095809590959B01AC01BD01E4
:10117000CF0108955058BB27AA270E94D2080C948B
:101180005E080E94500838F00E94570820F039F499
:101190009F3F19F426F40C944D080EF4E095E7FBFC
:1011A0000C944708E92F0E946F0858F3BA1762079A
:1011B00073078407950720F079F4A6F50C9491083D
:1011C0000EF4E0950B2EBA2FA02D0B01B901900162
:1011D0000C01CA01A0011124FF27591B99F0593FA6
:1011E00050F4503E68F11A16F040A22F232F342FEE
:1011F0004427585FF3CF469537952795A795F0403C
:101200005395C9F77EF41F16BA0B620B730B840B50
:10121000BAF09150A1F0FF0FBB1F661F771F881F08
:10122000C2F70EC0BA0F621F731F841F48F4879560
:1012300077956795B795F7959E3F08F0B0CF939552
:10124000880F08F09927EE0F9795879508950E94CB
:101250003B090C945E080E94570858F00E94500801
:1012600040F029F45F3F29F00C94470851110C9489
:1012700092080C944D080E946F0868F39923B1F30B
:10128000552391F3951B550BBB27AA2762177307AC
:10129000840738F09F5F5F4F220F331F441FAA1F40
:1012A000A9F335D00E2E3AF0E0E832D091505040FC
:1012B000E695001CCAF72BD0FE2F29D0660F771FAA
:1012C000881FBB1F261737074807AB07B0E809F090
:1012D000BB0B802DBF01FF2793585F4F3AF09E3F15
:1012E000510578F00C9447080C9492085F3FE4F3A2
:1012F000983ED4F3869577956795B795F7959F5F58
:10130000C9F7880F911D9695879597F90895E1E0A3
:10131000660F771F881FBB1F621773078407BA0702
:1013200020F0621B730B840BBA0BEE1F88F7E0955D
:1013300008950E94A0096894B1110C949208089530
:101340000E94770888F09F5798F0B92F9927B751D6
:10135000B0F0E1F0660F771F881F991F1AF0BA9559
:10136000C9F714C0B13091F00E949108B1E008951E
:101370000C949108672F782F8827B85F39F0B93F10
:10138000CCF3869577956795B395D9F73EF490950C
:101390008095709561957F4F8F4F9F4F089516F000
:1013A0000C941F0A0C944D0868940C9447080E94F2
:1013B0007708A8F39923C1F3AEF3DF93CF931F937C
:1013C0000F93FF92C92FDD2788232AF02197660FFC
:1013D000771F881FDAF720E030E040E85FEB9FE3FB
:1013E000883920F0803E38F021968F770E94BB0824
:1013F000E8E6F0E004C00E94BB08E5E9F0E00E94E6
:101400002D0A8B01BE01EC01FB2E6F5771097595FA
:10141000771F880B990B0E949F0728E132E741E371
:101420005FE30E94ED07AF2D9801AE01FF900F9191
:101430001F91CF91DF910E94D2080C945E089F3FCC
:1014400031F0915020F4879577956795B795880F7F
:10145000911D9695879597F90895DF93CF931F93E4
:101460000F93FF92EF92DF927B018C01689406C08C
:10147000DA2EEF010E94ED07FE01E894A591259177
:10148000359145915591A6F3EF010E94D208FE01D6
:101490009701A801DA9469F7DF90EF90FF900F9120
:1014A0001F91CF91DF91089597FB072E16F40094BA
:1014B00007D077FD09D00E94680A07FC05D03EF4EA
:1014C000909581959F4F0895709561957F4F0895F0
:1014D000AA1BBB1B51E107C0AA1FBB1FA617B7075A
:1014E00010F0A61BB70B881F991F5A95A9F7809576
:1014F0009095BC01CD010895EE0FFF1F0590F4916A
:08150000E02D0994F894FFCFDF
:101508000000A8410000A8410000A8410000A8412F
:101518000000A8410000A8410000A8410000A8411F
:101528000000A8410000A841000000008101E1007E
:101538000E01CE013F011D013101564D4450565F49
:10154800317C315F564D4450560A00564D44505236
:101558005F00564D4450455F003A323A007C005FC8
:0A156800564D445045000D0A0000E6
:00000001FF
